:020000040800F2
:1000000000500020690C0008550200085702000843
:10001000590200085B0200085D02000800000000B1
:100020000000000000000000000000005F02000867
:100030006102000800000000630200086502000879
:10004000B10C0008B10C0008B10C0008B10C00089C
:10005000B10C0008B10C0008B10C0008B10C00088C
:10006000B10C0008B10C0008B10C0008B10C00087C
:10007000B10C0008B10C0008B10C0008B10C00086C
:10008000B10C0008B10C0008B10C0008B10C00085C
:10009000B10C0008B10C0008B10C0008B10C00084C
:1000A000B10C0008B10C0008B10C0008B10C00083C
:1000B000B10C0008B10C0008B10C0008B10C00082C
:1000C000B10C0008B10C0008B10C0008B10C00081C
:1000D000B10C0008B10C0008B10C0008B10C00080C
:1000E000B10C0008B10C0008B10C000800000000C1
:1000F0000000000000000000000000000000000000
:0C01000000000000000000005FF808F1A3
:10010C0010B5054C237833B9044B13B10448AFF345
:10011C0000800123237010BD0C00002000000000A3
:10012C00FC0C000808B5034B1BB103490348AFF3A3
:10013C00008008BD0000000010000020FC0C00082E
:10014C0030B591B00024089409940B940C9401944C
:10015C000294039404940594012206924FF4803384
:10016C0007930A9202250D950E934FF4E0130F930B
:10017C0006A800F00BF90F230193029503944FF49A
:10018C00806304930594294601A800F03FFB11B04D
:10019C0030BD000008B500F0ABF8FFF7D1FF00F060
:1001AC0017F80A4C01224FF40051204600F0CEFC07
:1001BC00642000F0C1F800224FF40051204600F0FA
:1001CC00C5FC642000F0B8F8EBE700BF001001405C
:1001DC0010B588B000220492059206920792184B33
:1001EC00996941F010019961996901F0100101912F
:1001FC000199996941F020019961996901F02001F7
:10020C0002910299996941F0040199619B6903F08B
:10021C0004030393039B0B4C4FF40051204600F056
:10022C0095FC4FF40053049301230593069302238A
:10023C00079304A9204600F09DFB08B010BD00BF39
:10024C0000100240001001407047FEE7FEE7FEE799
:10025C00FEE770477047704708B500F05BF808BDC3
:10026C0082B00E4B9A6942F001029A619A6902F0CF
:10027C0001020092009ADA6942F08052DA61DB697D
:10028C0003F080530193019B054A536823F0E0630C
:10029C0043F00073536002B0704700BF001002407F
:1002AC000000014010B504460E4B18784FF47A73D9
:1002BC00B3FBF0F30C4A1068B0FBF3F000F092FCC7
:1002CC0068B90F2C01D901200AE0002221464FF019
:1002DC00FF3000F053FC054B1C60002000E00120B7
:1002EC0010BD00BF0000002008000020040000200A
:1002FC0008B5074A136843F010031360032000F09D
:10030C002BFC0020FFF7CEFFFFF7AAFF002008BD53
:10031C0000200240034A1168034B1B780B44136006
:10032C00704700BF2800002000000020014B186817
:10033C00704700BF2800002038B50446FFF7F6FFD1
:10034C000546B4F1FF3F02D0044B1B781C44FFF769
:10035C00EDFF401BA042FAD338BD00BF00000020C7
:10036C0082B0084B1B68084AA2FB03235B0A00FB04
:10037C0003F0019000BF019B5A1E0192002BF9D192
:10038C0002B0704708000020D34D6210002800F026
:10039C00F58170B582B00446036813F0010F2CD0C0
:1003AC00AB4B5B6803F00C03042B1DD0A84B5B68B4
:1003BC0003F00C03082B12D06368B3F5803F41D0D7
:1003CC00002B55D103F1804303F504331A6822F452
:1003DC0080321A601A6822F480221A6037E09C4B33
:1003EC005B6813F4803FE7D0994B1B6813F4003F14
:1003FC0003D06368002B00F0C381236813F0020F55
:10040C0076D0934B5B6813F00C0F5FD0904B5B680E
:10041C0003F00C03082B54D02369002B00F08A80C6
:10042C008C4B01221A60FFF781FF0546884B1B6835
:10043C0013F0020F75D1FFF779FF401B0228F5D995
:10044C000320A0E1824A136843F48033136063688D
:10045C0043B3FFF76BFF05467D4B1B6813F4003F5E
:10046C00CBD1FFF763FF401B6428F5D903208AE149
:10047C00B3F5A02F09D0764B1A6822F480321A609B
:10048C001A6822F480221A60E1E703F18043A3F595
:10049C003C331A6842F480221A601A6842F48032A3
:1004AC001A60D4E7FFF742FF0546694B1B6813F44B
:1004BC00003FA2D0FFF73AFF401B6428F5D9032078
:1004CC0061E1634B5B6813F4803FA5D1604B1B6803
:1004DC0013F0020F04D02369012B01D0012052E14B
:1004EC005B4A136823F0F803616943EAC1031360A4
:1004FC00236813F0080F32D0A369002B5BD0564B46
:10050C0001221A60FFF712FF0546514B5B6A13F08C
:10051C00020F21D1FFF70AFF401B0228F5D9032057
:10052C0031E14B4A136823F0F803616943EAC103D4
:10053C001360DDE7474B00221A60FFF7F7FE054614
:10054C00434B1B6813F0020FD2D0FFF7EFFE401B9A
:10055C000228F5D9032016E10120FFF701FF2368DB
:10056C0013F0040F00F09880394BDB6913F0805FB7
:10057C0033D1374BDA6942F08052DA61DB6903F030
:10058C0080530193019B0125344B1B6813F4807F2E
:10059C0025D0E368012B36D0002B4CD103F18043DE
:1005AC0003F504331A6A22F001021A621A6A22F065
:1005BC0004021A622CE0284B00221A60FFF7B6FEE8
:1005CC000546234B5B6A13F0020FC8D0FFF7AEFE53
:1005DC00401B0228F5D90320D5E00025D4E71F4A9B
:1005EC00136843F480731360FFF7A0FE06461B4BA1
:1005FC001B6813F4807FCCD1FFF798FE801B642816
:10060C00F5D90320BFE0124A136A43F001031362C9
:10061C00E3687BB3FFF78AFE06460D4B1B6A13F0AB
:10062C00020F38D1FFF782FE801B41F288339842CB
:10063C00F3D90320A7E0052B12D0054B1A6A22F040
:10064C0001021A621A6A22F004021A62E0E700BF81
:10065C000010024000004242800442420070004000
:10066C004C4B1A6A42F004021A621A6A42F00102F6
:10067C001A62CDE7FFF75AFE0646464B1B6A13F08B
:10068C00020F08D0FFF752FE801B41F288339842CC
:10069C00F3D9032077E0E5B9E369002B72D03D4A2A
:1006AC00526802F00C02082A56D0022B17D03A4B93
:1006BC0000221A60FFF73AFE0446364B1B6813F013
:1006CC00007F47D0FFF732FE001B0228F5D903202C
:1006DC0059E0304AD36923F08053D361DCE72E4BC9
:1006EC0000221A60FFF722FE05462A4B1B6813F006
:1006FC00007F06D0FFF71AFE401B0228F5D9032015
:10070C0041E0236AB3F5803F1AD022494B6823F4A9
:10071C007413226A606A024313434B601E4B01221E
:10072C001A60FFF703FE04461A4B1B6813F0007F98
:10073C000ED1FFF7FBFD001B0228F5D9032022E0A8
:10074C00144A536823F40033A1680B435360DCE76D
:10075C00002018E0002016E0012B16D00D4B5B6832
:10076C0003F48031226A914201D001200BE003F4A2
:10077C007013626A93420AD0012004E00120704792
:10078C00012000E0002002B070BD0120FBE700203A
:10079C00F9E700BF001002406000424210B487B07D
:1007AC00164C94E80F000DF1180C0CE90F00238A7D
:1007BC00ADF80430124B5B6803F00C02082A1AD116
:1007CC00C3F38342624412F8102C13F4803F05D11A
:1007DC000C4800FB02F007B010BC7047084B5B687C
:1007EC00C3F34043634413F8143C074800FB02F086
:1007FC00B0FBF3F0EFE70448EDE700BF140D000881
:10080C000010024000093D0000127A00002800F0A0
:10081C00A38070B50446524B1B6803F007038B4250
:10082C000CD24F4A136823F007030B431360136871
:10083C0003F007038B4201D0012070BD236813F035
:10084C00020F17D013F0040F04D0464A536843F438
:10085C00E0635360236813F0080F04D0414A5368D7
:10086C0043F4605353603F4A536823F0F003A0688D
:10087C00034353600D46236813F0010F31D06368B6
:10088C00012B20D0022B25D0364A126812F0020F11
:10089C0064D034494A6822F0030213434B60FFF7DB
:1008AC0045FD06462F4B5B6803F00C036268B3EB07
:1008BC00820F16D0FFF73AFD801B41F28833984225
:1008CC00F0D90320B9E7274A126812F4003FE0D1AF
:1008DC000120B2E7234A126812F0007FD9D101201F
:1008EC00ABE71F4B1B6803F00703AB420CD91C4A48
:1008FC00136823F007032B431360136803F00703FB
:10090C00AB4201D0012098E7236813F0040F06D006
:10091C00144A536823F4E063E1680B435360236883
:10092C0013F0080F07D00F4A536823F46053216962
:10093C0043EAC1035360FFF731FF0A4B5B68C3F313
:10094C000313094AD35CD840084B1860084B18684D
:10095C00FFF7A8FC002070E70120704701206CE72E
:10096C000020024000100240280D00080800002062
:10097C0004000020F0B482B000263246A2E0002D24
:10098C005AD0012D00D1CE68FF2B69D88446FF2B9D
:10099C0069D89500DCF800400F27AF4024EA070423
:1009AC0006FA05F52C43CCF800404C6814F0805F37
:1009BC0000F087805F4CA56945F00105A561A4692D
:1009CC0004F001040194019C9508AF1C5A4C54F896
:1009DC00274002F00307BF004FF00F0C0CFA07FC86
:1009EC0024EA0C0C554CA04243D004F58064A04280
:1009FC0000F0818004F58064A0427ED004F5806410
:100A0C00A04234D0042435E04D4FBD4214D00BD954
:100A1C004C4FBD4210D007F58037BD420CD0A7F526
:100A2C008017BD42B0D107E0A7F58017BD4203D0B7
:100A3C0007F58037BD42A7D18D687DB1012D08D057
:100A4C0044610826A0E7CE6808369DE7CE680C36D0
:100A5C009AE70461082697E7002695E7042693E7B2
:100A6C0000F1040C93E7A2F10805AD0092E7032412
:100A7C0000E00024BC4044EA0C0402352E4F47F839
:100A8C0025404C6814F4803F39D02F4D2C681C4302
:100A9C002C604C6814F4003F37D02B4D6C681C4311
:100AAC006C604C6814F4801F35D0274DAC681C4327
:100ABC00AC604C6814F4001F33D0234DEC68234316
:100ACC00EB6001320B6833FA02F430D0012494400D
:100ADC0023409C42F5D14D68122DB7D094D8022DED
:100AEC00B1D07FF64CAF032DB6D0112D7FF44CAFA7
:100AFC00CE68043648E70124BCE70224BAE7124D5D
:100B0C002C6824EA03042C60C3E70F4D6C6824EABC
:100B1C0003046C60C5E70C4DAC6824EA0304AC60BC
:100B2C00C7E7094DEC6824EA0303EB60C9E702B0A0
:100B3C00F0BC70470010024000000140000801406A
:100B4C0000002110000031100004014012B909040A
:100B5C000161704701617047074AD36823F4E06371
:100B6C001B041B0C000200F4E060184340F0BF6053
:100B7C0040F40030D060704700ED00E030B4174B0B
:100B8C00DB68C3F30223C3F10704042C28BF04243D
:100B9C001D1D062D18D9033B4FF0FF3505FA04F443
:100BAC0021EA0401994005FA03F322EA03031943ED
:100BBC0000280BDB0901C9B200F1604000F561406F
:100BCC0080F8001330BC70470023E5E700F00F00FD
:100BDC000901C9B2024B1954F4E700BF00ED00E063
:100BEC0014ED00E00138B0F1807F0AD2064B58605A
:100BFC00064AF02182F823100020986007221A6020
:100C0C0070470120704700BF10E000E000ED00E0ED
:100C1C000F4B1A6842F001021A6059680D4A0A40DB
:100C2C005A601A6822F0847222F480321A601A68B0
:100C3C0022F480221A605A6822F4FE025A604FF4A1
:100C4C001F029A60044B4FF000629A60704700BF1D
:100C5C00001002400000FFF800ED00E0002103E06E
:100C6C000B4B5B58435004310A480B4B42189A42C9
:100C7C00F6D30A4A02E0002342F8043B084B9A429E
:100C8C00F9D3FFF7C5FF00F00FF8FFF783FA7047B1
:100C9C00400D0008000000200C0000200C0000207B
:100CAC002C000020FEE7000070B500250C4E0D4C0A
:100CBC00A41BA410A54209D100F01AF800250A4E75
:100CCC000A4CA41BA410A54205D170BD56F82530C2
:100CDC0098470135EEE756F8253098470135F2E78D
:100CEC00380D0008380D0008380D00083C0D0008C0
:100CFC00F8B500BFF8BC08BC9E467047F8B500BFFD
:080D0C00F8BC08BC9E467047CC
:100D140002030405060708090A0B0C0D0E0F101038
:100D240001020000000000000000000001020304B2
:040D3400060708099D
:040D3800310100087D
:040D3C000D0100089D
:0C0D400001000000100000000024F4007E
:0400000508000C697A
:00000001FF
